{
  "_format": "hh-sol-artifact-1",
  "contractName": "FundDistributor",
  "sourceName": "contracts/FundDistributor.sol",
  "abi": [
    {
      "inputs": [],
      "stateMutability": "nonpayable",
      "type": "constructor"
    },
    {
      "inputs": [],
      "name": "ECDSAInvalidSignature",
      "type": "error"
    },
    {
      "inputs": [
        {
          "internalType": "uint256",
          "name": "length",
          "type": "uint256"
        }
      ],
      "name": "ECDSAInvalidSignatureLength",
      "type": "error"
    },
    {
      "inputs": [
        {
          "internalType": "bytes32",
          "name": "s",
          "type": "bytes32"
        }
      ],
      "name": "ECDSAInvalidSignatureS",
      "type": "error"
    },
    {
      "anonymous": false,
      "inputs": [
        {
          "indexed": true,
          "internalType": "address",
          "name": "receiver",
          "type": "address"
        },
        {
          "indexed": false,
          "internalType": "string",
          "name": "depositAddress",
          "type": "string"
        }
      ],
      "name": "RegisterAccount",
      "type": "event"
    },
    {
      "anonymous": false,
      "inputs": [
        {
          "indexed": true,
          "internalType": "address",
          "name": "receiver",
          "type": "address"
        },
        {
          "indexed": false,
          "internalType": "string",
          "name": "txId",
          "type": "string"
        },
        {
          "indexed": false,
          "internalType": "uint256",
          "name": "amount",
          "type": "uint256"
        }
      ],
      "name": "TransactionComplete",
      "type": "event"
    },
    {
      "anonymous": false,
      "inputs": [
        {
          "indexed": true,
          "internalType": "address",
          "name": "receiver",
          "type": "address"
        },
        {
          "indexed": false,
          "internalType": "string",
          "name": "depositorRawAddress",
          "type": "string"
        },
        {
          "indexed": false,
          "internalType": "string",
          "name": "txId",
          "type": "string"
        },
        {
          "indexed": false,
          "internalType": "uint256",
          "name": "amount",
          "type": "uint256"
        }
      ],
      "name": "TransactionPending",
      "type": "event"
    },
    {
      "anonymous": false,
      "inputs": [
        {
          "indexed": true,
          "internalType": "address",
          "name": "admin",
          "type": "address"
        },
        {
          "indexed": false,
          "internalType": "uint256",
          "name": "amount",
          "type": "uint256"
        }
      ],
      "name": "Withdraw",
      "type": "event"
    },
    {
      "inputs": [],
      "name": "ACCOUNT_REGISTRAR",
      "outputs": [
        {
          "internalType": "uint256",
          "name": "",
          "type": "uint256"
        }
      ],
      "stateMutability": "view",
      "type": "function"
    },
    {
      "inputs": [],
      "name": "PAYOUT_REGISTRAR",
      "outputs": [
        {
          "internalType": "uint256",
          "name": "",
          "type": "uint256"
        }
      ],
      "stateMutability": "view",
      "type": "function"
    },
    {
      "inputs": [],
      "name": "TRANSACTION_REGISTRAR",
      "outputs": [
        {
          "internalType": "uint256",
          "name": "",
          "type": "uint256"
        }
      ],
      "stateMutability": "view",
      "type": "function"
    },
    {
      "inputs": [],
      "name": "TX_STATUS_COMPLETED",
      "outputs": [
        {
          "internalType": "uint256",
          "name": "",
          "type": "uint256"
        }
      ],
      "stateMutability": "view",
      "type": "function"
    },
    {
      "inputs": [],
      "name": "TX_STATUS_PENDING",
      "outputs": [
        {
          "internalType": "uint256",
          "name": "",
          "type": "uint256"
        }
      ],
      "stateMutability": "view",
      "type": "function"
    },
    {
      "inputs": [
        {
          "internalType": "address",
          "name": "registrar",
          "type": "address"
        },
        {
          "internalType": "uint8",
          "name": "role",
          "type": "uint8"
        }
      ],
      "name": "addRegistrar",
      "outputs": [],
      "stateMutability": "nonpayable",
      "type": "function"
    },
    {
      "inputs": [],
      "name": "admin",
      "outputs": [
        {
          "internalType": "address payable",
          "name": "",
          "type": "address"
        }
      ],
      "stateMutability": "view",
      "type": "function"
    },
    {
      "inputs": [
        {
          "internalType": "address payable",
          "name": "newAdmin",
          "type": "address"
        }
      ],
      "name": "changeOwnership",
      "outputs": [],
      "stateMutability": "nonpayable",
      "type": "function"
    },
    {
      "inputs": [
        {
          "internalType": "address",
          "name": "payoutRegistrar",
          "type": "address"
        },
        {
          "internalType": "uint256",
          "name": "limit",
          "type": "uint256"
        }
      ],
      "name": "increaseLimit",
      "outputs": [],
      "stateMutability": "nonpayable",
      "type": "function"
    },
    {
      "inputs": [],
      "name": "isActive",
      "outputs": [
        {
          "internalType": "bool",
          "name": "",
          "type": "bool"
        }
      ],
      "stateMutability": "view",
      "type": "function"
    },
    {
      "inputs": [
        {
          "internalType": "address",
          "name": "",
          "type": "address"
        }
      ],
      "name": "limits",
      "outputs": [
        {
          "internalType": "uint256",
          "name": "",
          "type": "uint256"
        }
      ],
      "stateMutability": "view",
      "type": "function"
    },
    {
      "inputs": [
        {
          "internalType": "string",
          "name": "txId",
          "type": "string"
        }
      ],
      "name": "payout",
      "outputs": [],
      "stateMutability": "payable",
      "type": "function"
    },
    {
      "inputs": [
        {
          "internalType": "string",
          "name": "",
          "type": "string"
        }
      ],
      "name": "receiverAddress",
      "outputs": [
        {
          "internalType": "address",
          "name": "",
          "type": "address"
        }
      ],
      "stateMutability": "view",
      "type": "function"
    },
    {
      "inputs": [
        {
          "internalType": "address",
          "name": "receiver",
          "type": "address"
        },
        {
          "internalType": "string",
          "name": "depositAddress",
          "type": "string"
        },
        {
          "internalType": "bytes",
          "name": "signedMessage",
          "type": "bytes"
        }
      ],
      "name": "registerAccount",
      "outputs": [],
      "stateMutability": "nonpayable",
      "type": "function"
    },
    {
      "inputs": [
        {
          "internalType": "string",
          "name": "txid",
          "type": "string"
        },
        {
          "internalType": "string",
          "name": "depositorAddress",
          "type": "string"
        },
        {
          "internalType": "uint256",
          "name": "amount",
          "type": "uint256"
        }
      ],
      "name": "registerTransaction",
      "outputs": [],
      "stateMutability": "nonpayable",
      "type": "function"
    },
    {
      "inputs": [
        {
          "internalType": "address",
          "name": "registrar",
          "type": "address"
        }
      ],
      "name": "removeRegistrar",
      "outputs": [],
      "stateMutability": "nonpayable",
      "type": "function"
    },
    {
      "inputs": [
        {
          "internalType": "address",
          "name": "",
          "type": "address"
        }
      ],
      "name": "roles",
      "outputs": [
        {
          "internalType": "uint8",
          "name": "",
          "type": "uint8"
        }
      ],
      "stateMutability": "view",
      "type": "function"
    },
    {
      "inputs": [],
      "name": "totalBalance",
      "outputs": [
        {
          "internalType": "uint256",
          "name": "",
          "type": "uint256"
        }
      ],
      "stateMutability": "view",
      "type": "function"
    },
    {
      "inputs": [],
      "name": "totalLimit",
      "outputs": [
        {
          "internalType": "uint256",
          "name": "",
          "type": "uint256"
        }
      ],
      "stateMutability": "view",
      "type": "function"
    },
    {
      "inputs": [
        {
          "internalType": "string",
          "name": "",
          "type": "string"
        }
      ],
      "name": "txAmount",
      "outputs": [
        {
          "internalType": "uint256",
          "name": "",
          "type": "uint256"
        }
      ],
      "stateMutability": "view",
      "type": "function"
    },
    {
      "inputs": [
        {
          "internalType": "string",
          "name": "",
          "type": "string"
        }
      ],
      "name": "txRegistration",
      "outputs": [
        {
          "internalType": "string",
          "name": "",
          "type": "string"
        }
      ],
      "stateMutability": "view",
      "type": "function"
    },
    {
      "inputs": [
        {
          "internalType": "string",
          "name": "",
          "type": "string"
        }
      ],
      "name": "txStatus",
      "outputs": [
        {
          "internalType": "uint256",
          "name": "",
          "type": "uint256"
        }
      ],
      "stateMutability": "view",
      "type": "function"
    },
    {
      "inputs": [],
      "name": "withdraw",
      "outputs": [],
      "stateMutability": "payable",
      "type": "function"
    },
    {
      "stateMutability": "payable",
      "type": "receive"
    }
  ],
  "bytecode": "0x60806040526001600860006101000a81548160ff02191690831515021790555034801561002b57600080fd5b50336000806101000a81548173ffffffffffffffffffffffffffffffffffffffff021916908373ffffffffffffffffffffffffffffffffffffffff1602179055506139418061007b6000396000f3fe6080604052600436106101445760003560e01c8063ad7a672f116100b6578063f270a05e1161006f578063f270a05e1461044f578063f7dd48141461047a578063f851a440146104a3578063f862c5d7146104ce578063fd4861b5146104f7578063fe6d0a38146105345761014b565b8063ad7a672f1461033d578063b248d7e714610368578063ba904eed14610393578063ca1375c3146103bc578063d9c03b5d146103e7578063f0235312146104125761014b565b80633ccfd60b116101085780633ccfd60b146102285780634118c9b6146102325780634b66489e1461025b5780638f926c5c1461029857806399374642146102d5578063a36298c7146103125761014b565b8063037fb8fe146101505780631504ce951461017b57806320d7bec11461019757806322f3e2d4146101d45780632af4c31e146101ff5761014b565b3661014b57005b600080fd5b34801561015c57600080fd5b5061016561055d565b60405161017291906121ac565b60405180910390f35b61019560048036038101906101909190612240565b610562565b005b3480156101a357600080fd5b506101be60048036038101906101b991906122eb565b610818565b6040516101cb91906121ac565b60405180910390f35b3480156101e057600080fd5b506101e9610830565b6040516101f69190612333565b60405180910390f35b34801561020b57600080fd5b506102266004803603810190610221919061238c565b610843565b005b610230610914565b005b34801561023e57600080fd5b50610259600480360381019061025491906123e5565b610af9565b005b34801561026757600080fd5b50610282600480360381019061027d9190612566565b610ca0565b60405161028f91906125be565b60405180910390f35b3480156102a457600080fd5b506102bf60048036038101906102ba9190612566565b610ce9565b6040516102cc91906121ac565b60405180910390f35b3480156102e157600080fd5b506102fc60048036038101906102f791906122eb565b610d17565b60405161030991906125f5565b60405180910390f35b34801561031e57600080fd5b50610327610d37565b60405161033491906121ac565b60405180910390f35b34801561034957600080fd5b50610352610d3d565b60405161035f91906121ac565b60405180910390f35b34801561037457600080fd5b5061037d610d45565b60405161038a91906121ac565b60405180910390f35b34801561039f57600080fd5b506103ba60048036038101906103b591906122eb565b610d4a565b005b3480156103c857600080fd5b506103d1610e83565b6040516103de91906121ac565b60405180910390f35b3480156103f357600080fd5b506103fc610e88565b60405161040991906121ac565b60405180910390f35b34801561041e57600080fd5b5061043960048036038101906104349190612566565b610e8d565b60405161044691906121ac565b60405180910390f35b34801561045b57600080fd5b50610464610ebb565b60405161047191906121ac565b60405180910390f35b34801561048657600080fd5b506104a1600480360381019061049c9190612610565b610ec0565b005b3480156104af57600080fd5b506104b86111d6565b6040516104c591906126b4565b60405180910390f35b3480156104da57600080fd5b506104f560048036038101906104f091906126fb565b6111fa565b005b34801561050357600080fd5b5061051e60048036038101906105199190612566565b6113c5565b60405161052b91906127ba565b60405180910390f35b34801561054057600080fd5b5061055b60048036038101906105569190612832565b61147b565b005b600181565b6002600360003373ffffffffffffffffffffffffffffffffffffffff1673ffffffffffffffffffffffffffffffffffffffff16815260200190815260200160002060009054906101000a900460ff1660ff16146105f4576040517f08c379a00000000000000000000000000000000000000000000000000000000081526004016105eb90612939565b60405180910390fd5b600860009054906101000a900460ff16610643576040517f08c379a000000000000000000000000000000000000000000000000000000000815260040161063a906129a5565b60405180910390fd5b6000600783836040516106579291906129f5565b908152602001604051809103902054036106a6576040517f08c379a000000000000000000000000000000000000000000000000000000000815260040161069d90612a5a565b60405180910390fd5b6001600783836040516106ba9291906129f5565b90815260200160405180910390205414610709576040517f08c379a000000000000000000000000000000000000000000000000000000000815260040161070090612ac6565b60405180910390fd5b600060046005848460405161071f9291906129f5565b908152602001604051809103902060405161073a9190612bde565b908152602001604051809103902060009054906101000a900473ffffffffffffffffffffffffffffffffffffffff16905060006006848460405161077f9291906129f5565b90815260200160405180910390205490506002600785856040516107a49291906129f5565b9081526020016040518091039020819055506107c08282611843565b8173ffffffffffffffffffffffffffffffffffffffff167f68e715f648746b911ed0fb55b83b54467dea9c28757ab30b1b02465e83adf89d85858460405161080a93929190612c22565b60405180910390a250505050565b60026020528060005260406000206000915090505481565b600860009054906101000a900460ff1681565b60008054906101000a900473ffffffffffffffffffffffffffffffffffffffff1673ffffffffffffffffffffffffffffffffffffffff163373ffffffffffffffffffffffffffffffffffffffff16146108d1576040517f08c379a00000000000000000000000000000000000000000000000000000000081526004016108c890612cc6565b60405180910390fd5b806000806101000a81548173ffffffffffffffffffffffffffffffffffffffff021916908373ffffffffffffffffffffffffffffffffffffffff16021790555050565b60008054906101000a900473ffffffffffffffffffffffffffffffffffffffff1673ffffffffffffffffffffffffffffffffffffffff163373ffffffffffffffffffffffffffffffffffffffff16146109a2576040517f08c379a000000000000000000000000000000000000000000000000000000000815260040161099990612cc6565b60405180910390fd5b600860009054906101000a900460ff166109f1576040517f08c379a00000000000000000000000000000000000000000000000000000000081526004016109e8906129a5565b60405180910390fd5b6000600860006101000a81548160ff021916908315150217905550600060018190555060008054906101000a900473ffffffffffffffffffffffffffffffffffffffff1673ffffffffffffffffffffffffffffffffffffffff166108fc610a56610d3d565b9081150290604051600060405180830381858888f19350505050158015610a81573d6000803e3d6000fd5b5060008054906101000a900473ffffffffffffffffffffffffffffffffffffffff1673ffffffffffffffffffffffffffffffffffffffff167f884edad9ce6fa2440d8a54cc123490eb96d2768479d49ff9c7366125a9424364610ae2610d3d565b604051610aef91906121ac565b60405180910390a2565b60008054906101000a900473ffffffffffffffffffffffffffffffffffffffff1673ffffffffffffffffffffffffffffffffffffffff163373ffffffffffffffffffffffffffffffffffffffff1614610b87576040517f08c379a0000000000000000000000000000000000000000000000000000000008152600401610b7e90612cc6565b60405180910390fd5b600860009054906101000a900460ff16610bd6576040517f08c379a0000000000000000000000000000000000000000000000000000000008152600401610bcd906129a5565b60405180910390fd5b610bde610d3d565b81600154610bec9190612d15565b1115610c2d576040517f08c379a0000000000000000000000000000000000000000000000000000000008152600401610c2490612d95565b60405180910390fd5b8060016000828254610c3f9190612d15565b9250508190555080600260008473ffffffffffffffffffffffffffffffffffffffff1673ffffffffffffffffffffffffffffffffffffffff1681526020019081526020016000206000828254610c959190612d15565b925050819055505050565b6004818051602081018201805184825260208301602085012081835280955050505050506000915054906101000a900473ffffffffffffffffffffffffffffffffffffffff1681565b6006818051602081018201805184825260208301602085012081835280955050505050506000915090505481565b60036020528060005260406000206000915054906101000a900460ff1681565b60015481565b600047905090565b600281565b60008054906101000a900473ffffffffffffffffffffffffffffffffffffffff1673ffffffffffffffffffffffffffffffffffffffff163373ffffffffffffffffffffffffffffffffffffffff1614610dd8576040517f08c379a0000000000000000000000000000000000000000000000000000000008152600401610dcf90612cc6565b60405180910390fd5b600860009054906101000a900460ff16610e27576040517f08c379a0000000000000000000000000000000000000000000000000000000008152600401610e1e906129a5565b60405180910390fd5b6000600360008373ffffffffffffffffffffffffffffffffffffffff1673ffffffffffffffffffffffffffffffffffffffff16815260200190815260200160002060006101000a81548160ff021916908360ff16021790555050565b600281565b600181565b6007818051602081018201805184825260208301602085012081835280955050505050506000915090505481565b600381565b60038060003373ffffffffffffffffffffffffffffffffffffffff1673ffffffffffffffffffffffffffffffffffffffff16815260200190815260200160002060009054906101000a900460ff1660ff1614610f51576040517f08c379a0000000000000000000000000000000000000000000000000000000008152600401610f4890612e27565b60405180910390fd5b600860009054906101000a900460ff16610fa0576040517f08c379a0000000000000000000000000000000000000000000000000000000008152600401610f97906129a5565b60405180910390fd5b600073ffffffffffffffffffffffffffffffffffffffff1660048484604051610fca9291906129f5565b908152602001604051809103902060009054906101000a900473ffffffffffffffffffffffffffffffffffffffff1673ffffffffffffffffffffffffffffffffffffffff160361104f576040517f08c379a000000000000000000000000000000000000000000000000000000000815260040161104690612e93565b60405180910390fd5b6000600586866040516110639291906129f5565b9081526020016040518091039020805461107c90612b15565b9050146110be576040517f08c379a00000000000000000000000000000000000000000000000000000000081526004016110b590612f25565b60405180910390fd5b8282600587876040516110d29291906129f5565b908152602001604051809103902091826110ed9291906130e7565b5080600686866040516111019291906129f5565b9081526020016040518091039020819055506001600786866040516111279291906129f5565b9081526020016040518091039020819055506004838360405161114b9291906129f5565b908152602001604051809103902060009054906101000a900473ffffffffffffffffffffffffffffffffffffffff1673ffffffffffffffffffffffffffffffffffffffff167faa3696f7ac912e2319c622ec683adaad0bb6d74f6568645ff5164aebe0f7763984848888866040516111c79594939291906131b7565b60405180910390a25050505050565b60008054906101000a900473ffffffffffffffffffffffffffffffffffffffff1681565b60008054906101000a900473ffffffffffffffffffffffffffffffffffffffff1673ffffffffffffffffffffffffffffffffffffffff163373ffffffffffffffffffffffffffffffffffffffff1614611288576040517f08c379a000000000000000000000000000000000000000000000000000000000815260040161127f90612cc6565b60405180910390fd5b600860009054906101000a900460ff166112d7576040517f08c379a00000000000000000000000000000000000000000000000000000000081526004016112ce906129a5565b60405180910390fd5b6000600360008473ffffffffffffffffffffffffffffffffffffffff1673ffffffffffffffffffffffffffffffffffffffff16815260200190815260200160002060009054906101000a900460ff1660ff1614611369576040517f08c379a00000000000000000000000000000000000000000000000000000000081526004016113609061324c565b60405180910390fd5b80600360008473ffffffffffffffffffffffffffffffffffffffff1673ffffffffffffffffffffffffffffffffffffffff16815260200190815260200160002060006101000a81548160ff021916908360ff1602179055505050565b60058180516020810182018051848252602083016020850120818352809550505050505060009150905080546113fa90612b15565b80601f016020809104026020016040519081016040528092919081815260200182805461142690612b15565b80156114735780601f1061144857610100808354040283529160200191611473565b820191906000526020600020905b81548152906001019060200180831161145657829003601f168201915b505050505081565b6001600360003373ffffffffffffffffffffffffffffffffffffffff1673ffffffffffffffffffffffffffffffffffffffff16815260200190815260200160002060009054906101000a900460ff1660ff161461150d576040517f08c379a0000000000000000000000000000000000000000000000000000000008152600401611504906132de565b60405180910390fd5b600860009054906101000a900460ff1661155c576040517f08c379a0000000000000000000000000000000000000000000000000000000008152600401611553906129a5565b60405180910390fd5b60006115ab85858080601f016020809104026020016040519081016040528093929190818152602001838380828437600081840152601f19601f82011690508083019250505050505050611c57565b9050600073ffffffffffffffffffffffffffffffffffffffff168673ffffffffffffffffffffffffffffffffffffffff160361161c576040517f08c379a00000000000000000000000000000000000000000000000000000000081526004016116139061334a565b60405180910390fd5b600073ffffffffffffffffffffffffffffffffffffffff16600486866040516116469291906129f5565b908152602001604051809103902060009054906101000a900473ffffffffffffffffffffffffffffffffffffffff1673ffffffffffffffffffffffffffffffffffffffff16146116cb576040517f08c379a00000000000000000000000000000000000000000000000000000000081526004016116c2906133dc565b60405180910390fd5b600061171b8285858080601f016020809104026020016040519081016040528093929190818152602001838380828437600081840152601f19601f82011690508083019250505050505050611c92565b90508673ffffffffffffffffffffffffffffffffffffffff168173ffffffffffffffffffffffffffffffffffffffff161461178b576040517f08c379a00000000000000000000000000000000000000000000000000000000081526004016117829061346e565b60405180910390fd5b866004878760405161179e9291906129f5565b908152602001604051809103902060006101000a81548173ffffffffffffffffffffffffffffffffffffffff021916908373ffffffffffffffffffffffffffffffffffffffff1602179055508673ffffffffffffffffffffffffffffffffffffffff167f6d6b1a90cbe92116eea5a30ac42964e3680307f9ee047c0d15f4a16909f2f3c0878760405161183292919061348e565b60405180910390a250505050505050565b6002600360003373ffffffffffffffffffffffffffffffffffffffff1673ffffffffffffffffffffffffffffffffffffffff16815260200190815260200160002060009054906101000a900460ff1660ff16146118d5576040517f08c379a00000000000000000000000000000000000000000000000000000000081526004016118cc90612939565b60405180910390fd5b600860009054906101000a900460ff16611924576040517f08c379a000000000000000000000000000000000000000000000000000000000815260040161191b906129a5565b60405180910390fd5b3373ffffffffffffffffffffffffffffffffffffffff168273ffffffffffffffffffffffffffffffffffffffff1603611992576040517f08c379a000000000000000000000000000000000000000000000000000000000815260040161198990613524565b60405180910390fd5b600073ffffffffffffffffffffffffffffffffffffffff168273ffffffffffffffffffffffffffffffffffffffff1603611a01576040517f08c379a00000000000000000000000000000000000000000000000000000000081526004016119f890613590565b60405180910390fd5b6000600360008473ffffffffffffffffffffffffffffffffffffffff1673ffffffffffffffffffffffffffffffffffffffff16815260200190815260200160002060009054906101000a900460ff1660ff1614611a93576040517f08c379a0000000000000000000000000000000000000000000000000000000008152600401611a8a906135fc565b60405180910390fd5b60008111611ad6576040517f08c379a0000000000000000000000000000000000000000000000000000000008152600401611acd90613668565b60405180910390fd5b600154811115611b1b576040517f08c379a0000000000000000000000000000000000000000000000000000000008152600401611b12906136d4565b60405180910390fd5b600260003373ffffffffffffffffffffffffffffffffffffffff1673ffffffffffffffffffffffffffffffffffffffff16815260200190815260200160002054811115611b9d576040517f08c379a0000000000000000000000000000000000000000000000000000000008152600401611b9490613740565b60405180910390fd5b8060016000828254611baf9190613760565b9250508190555080600260003373ffffffffffffffffffffffffffffffffffffffff1673ffffffffffffffffffffffffffffffffffffffff1681526020019081526020016000206000828254611c059190613760565b925050819055508173ffffffffffffffffffffffffffffffffffffffff166108fc829081150290604051600060405180830381858888f19350505050158015611c52573d6000803e3d6000fd5b505050565b6000611c638251611cbe565b82604051602001611c75929190613801565b604051602081830303815290604052805190602001209050919050565b600080600080611ca28686611d8c565b925092509250611cb28282611de8565b82935050505092915050565b606060006001611ccd84611f4c565b01905060008167ffffffffffffffff811115611cec57611ceb61243b565b5b6040519080825280601f01601f191660200182016040528015611d1e5781602001600182028036833780820191505090505b509050600082602001820190505b600115611d81578080600190039150507f3031323334353637383961626364656600000000000000000000000000000000600a86061a8153600a8581611d7557611d74613834565b5b04945060008503611d2c575b819350505050919050565b60008060006041845103611dd15760008060006020870151925060408701519150606087015160001a9050611dc38882858561209f565b955095509550505050611de1565b60006002855160001b9250925092505b9250925092565b60006003811115611dfc57611dfb613863565b5b826003811115611e0f57611e0e613863565b5b0315611f485760016003811115611e2957611e28613863565b5b826003811115611e3c57611e3b613863565b5b03611e73576040517ff645eedf00000000000000000000000000000000000000000000000000000000815260040160405180910390fd5b60026003811115611e8757611e86613863565b5b826003811115611e9a57611e99613863565b5b03611edf578060001c6040517ffce698f7000000000000000000000000000000000000000000000000000000008152600401611ed691906121ac565b60405180910390fd5b600380811115611ef257611ef1613863565b5b826003811115611f0557611f04613863565b5b03611f4757806040517fd78bce0c000000000000000000000000000000000000000000000000000000008152600401611f3e91906138ab565b60405180910390fd5b5b5050565b600080600090507a184f03e93ff9f4daa797ed6e38ed64bf6a1f0100000000000000008310611faa577a184f03e93ff9f4daa797ed6e38ed64bf6a1f0100000000000000008381611fa057611f9f613834565b5b0492506040810190505b6d04ee2d6d415b85acef81000000008310611fe7576d04ee2d6d415b85acef81000000008381611fdd57611fdc613834565b5b0492506020810190505b662386f26fc10000831061201657662386f26fc10000838161200c5761200b613834565b5b0492506010810190505b6305f5e100831061203f576305f5e100838161203557612034613834565b5b0492506008810190505b612710831061206457612710838161205a57612059613834565b5b0492506004810190505b60648310612087576064838161207d5761207c613834565b5b0492506002810190505b600a8310612096576001810190505b80915050919050565b60008060007f7fffffffffffffffffffffffffffffff5d576e7357a4501ddfe92f46681b20a08460001c11156120df576000600385925092509250612189565b60006001888888886040516000815260200160405260405161210494939291906138c6565b6020604051602081039080840390855afa158015612126573d6000803e3d6000fd5b505050602060405103519050600073ffffffffffffffffffffffffffffffffffffffff168173ffffffffffffffffffffffffffffffffffffffff160361217a57600060016000801b93509350935050612189565b8060008060001b935093509350505b9450945094915050565b6000819050919050565b6121a681612193565b82525050565b60006020820190506121c1600083018461219d565b92915050565b6000604051905090565b600080fd5b600080fd5b600080fd5b600080fd5b600080fd5b60008083601f840112612200576121ff6121db565b5b8235905067ffffffffffffffff81111561221d5761221c6121e0565b5b602083019150836001820283011115612239576122386121e5565b5b9250929050565b60008060208385031215612257576122566121d1565b5b600083013567ffffffffffffffff811115612275576122746121d6565b5b612281858286016121ea565b92509250509250929050565b600073ffffffffffffffffffffffffffffffffffffffff82169050919050565b60006122b88261228d565b9050919050565b6122c8816122ad565b81146122d357600080fd5b50565b6000813590506122e5816122bf565b92915050565b600060208284031215612301576123006121d1565b5b600061230f848285016122d6565b91505092915050565b60008115159050919050565b61232d81612318565b82525050565b60006020820190506123486000830184612324565b92915050565b60006123598261228d565b9050919050565b6123698161234e565b811461237457600080fd5b50565b60008135905061238681612360565b92915050565b6000602082840312156123a2576123a16121d1565b5b60006123b084828501612377565b91505092915050565b6123c281612193565b81146123cd57600080fd5b50565b6000813590506123df816123b9565b92915050565b600080604083850312156123fc576123fb6121d1565b5b600061240a858286016122d6565b925050602061241b858286016123d0565b9150509250929050565b600080fd5b6000601f19601f8301169050919050565b7f4e487b7100000000000000000000000000000000000000000000000000000000600052604160045260246000fd5b6124738261242a565b810181811067ffffffffffffffff821117156124925761249161243b565b5b80604052505050565b60006124a56121c7565b90506124b1828261246a565b919050565b600067ffffffffffffffff8211156124d1576124d061243b565b5b6124da8261242a565b9050602081019050919050565b82818337600083830152505050565b6000612509612504846124b6565b61249b565b90508281526020810184848401111561252557612524612425565b5b6125308482856124e7565b509392505050565b600082601f83011261254d5761254c6121db565b5b813561255d8482602086016124f6565b91505092915050565b60006020828403121561257c5761257b6121d1565b5b600082013567ffffffffffffffff81111561259a576125996121d6565b5b6125a684828501612538565b91505092915050565b6125b8816122ad565b82525050565b60006020820190506125d360008301846125af565b92915050565b600060ff82169050919050565b6125ef816125d9565b82525050565b600060208201905061260a60008301846125e6565b92915050565b60008060008060006060868803121561262c5761262b6121d1565b5b600086013567ffffffffffffffff81111561264a576126496121d6565b5b612656888289016121ea565b9550955050602086013567ffffffffffffffff811115612679576126786121d6565b5b612685888289016121ea565b93509350506040612698888289016123d0565b9150509295509295909350565b6126ae8161234e565b82525050565b60006020820190506126c960008301846126a5565b92915050565b6126d8816125d9565b81146126e357600080fd5b50565b6000813590506126f5816126cf565b92915050565b60008060408385031215612712576127116121d1565b5b6000612720858286016122d6565b9250506020612731858286016126e6565b9150509250929050565b600081519050919050565b600082825260208201905092915050565b60005b8381101561277557808201518184015260208101905061275a565b60008484015250505050565b600061278c8261273b565b6127968185612746565b93506127a6818560208601612757565b6127af8161242a565b840191505092915050565b600060208201905081810360008301526127d48184612781565b905092915050565b60008083601f8401126127f2576127f16121db565b5b8235905067ffffffffffffffff81111561280f5761280e6121e0565b5b60208301915083600182028301111561282b5761282a6121e5565b5b9250929050565b60008060008060006060868803121561284e5761284d6121d1565b5b600061285c888289016122d6565b955050602086013567ffffffffffffffff81111561287d5761287c6121d6565b5b612889888289016121ea565b9450945050604086013567ffffffffffffffff8111156128ac576128ab6121d6565b5b6128b8888289016127dc565b92509250509295509295909350565b7f4f6e6c79206469737472696275746f722063616e2063616c6c2074686973206660008201527f756e6374696f6e00000000000000000000000000000000000000000000000000602082015250565b6000612923602783612746565b915061292e826128c7565b604082019050919050565b6000602082019050818103600083015261295281612916565b9050919050565b7f436f6e7472616374206973206e6f742061637469766500000000000000000000600082015250565b600061298f601683612746565b915061299a82612959565b602082019050919050565b600060208201905081810360008301526129be81612982565b9050919050565b600081905092915050565b60006129dc83856129c5565b93506129e98385846124e7565b82840190509392505050565b6000612a028284866129d0565b91508190509392505050565b7f5472616e73616374696f6e206973206e6f742072656769737465726564000000600082015250565b6000612a44601d83612746565b9150612a4f82612a0e565b602082019050919050565b60006020820190508181036000830152612a7381612a37565b9050919050565b7f5472616e73616374696f6e20697320616c726561647920636f6d706c65746564600082015250565b6000612ab0602083612746565b9150612abb82612a7a565b602082019050919050565b60006020820190508181036000830152612adf81612aa3565b9050919050565b7f4e487b7100000000000000000000000000000000000000000000000000000000600052602260045260246000fd5b60006002820490506001821680612b2d57607f821691505b602082108103612b4057612b3f612ae6565b5b50919050565b60008190508160005260206000209050919050565b60008154612b6881612b15565b612b7281866129c5565b94506001821660008114612b8d5760018114612ba257612bd5565b60ff1983168652811515820286019350612bd5565b612bab85612b46565b60005b83811015612bcd57815481890152600182019150602081019050612bae565b838801955050505b50505092915050565b6000612bea8284612b5b565b915081905092915050565b6000612c018385612746565b9350612c0e8385846124e7565b612c178361242a565b840190509392505050565b60006040820190508181036000830152612c3d818587612bf5565b9050612c4c602083018461219d565b949350505050565b7f4f6e6c792061646d696e2063616e2063616c6c20746869732066756e6374696f60008201527f6e00000000000000000000000000000000000000000000000000000000000000602082015250565b6000612cb0602183612746565b9150612cbb82612c54565b604082019050919050565b60006020820190508181036000830152612cdf81612ca3565b9050919050565b7f4e487b7100000000000000000000000000000000000000000000000000000000600052601160045260246000fd5b6000612d2082612193565b9150612d2b83612193565b9250828201905080821115612d4357612d42612ce6565b5b92915050565b7f4c696d6974206578636565647320746f74616c2062616c616e63650000000000600082015250565b6000612d7f601b83612746565b9150612d8a82612d49565b602082019050919050565b60006020820190508181036000830152612dae81612d72565b9050919050565b7f4f6e6c79207472616e73616374696f6e207265676973747261722063616e206360008201527f616c6c20746869732066756e6374696f6e000000000000000000000000000000602082015250565b6000612e11603183612746565b9150612e1c82612db5565b604082019050919050565b60006020820190508181036000830152612e4081612e04565b9050919050565b7f4163636f756e74206e6f74207265676973746572656400000000000000000000600082015250565b6000612e7d601683612746565b9150612e8882612e47565b602082019050919050565b60006020820190508181036000830152612eac81612e70565b9050919050565b7f5472616e73616374696f6e20697320616c72656164792072656769737465726560008201527f6400000000000000000000000000000000000000000000000000000000000000602082015250565b6000612f0f602183612746565b9150612f1a82612eb3565b604082019050919050565b60006020820190508181036000830152612f3e81612f02565b9050919050565b600082905092915050565b60006020601f8301049050919050565b600082821b905092915050565b600060088302612f9d7fffffffffffffffffffffffffffffffffffffffffffffffffffffffffffffffff82612f60565b612fa78683612f60565b95508019841693508086168417925050509392505050565b6000819050919050565b6000612fe4612fdf612fda84612193565b612fbf565b612193565b9050919050565b6000819050919050565b612ffe83612fc9565b61301261300a82612feb565b848454612f6d565b825550505050565b600090565b61302761301a565b613032818484612ff5565b505050565b5b818110156130565761304b60008261301f565b600181019050613038565b5050565b601f82111561309b5761306c81612b46565b61307584612f50565b81016020851015613084578190505b61309861309085612f50565b830182613037565b50505b505050565b600082821c905092915050565b60006130be600019846008026130a0565b1980831691505092915050565b60006130d783836130ad565b9150826002028217905092915050565b6130f18383612f45565b67ffffffffffffffff81111561310a5761310961243b565b5b6131148254612b15565b61311f82828561305a565b6000601f83116001811461314e576000841561313c578287013590505b61314685826130cb565b8655506131ae565b601f19841661315c86612b46565b60005b828110156131845784890135825560018201915060208501945060208101905061315f565b868310156131a1578489013561319d601f8916826130ad565b8355505b6001600288020188555050505b50505050505050565b600060608201905081810360008301526131d2818789612bf5565b905081810360208301526131e7818587612bf5565b90506131f6604083018461219d565b9695505050505050565b7f52656769737472617220697320616c7265616479206164646564000000000000600082015250565b6000613236601a83612746565b915061324182613200565b602082019050919050565b6000602082019050818103600083015261326581613229565b9050919050565b7f4f6e6c79207265676973747261722063616e2063616c6c20746869732066756e60008201527f6374696f6e000000000000000000000000000000000000000000000000000000602082015250565b60006132c8602583612746565b91506132d38261326c565b604082019050919050565b600060208201905081810360008301526132f7816132bb565b9050919050565b7f43616e2774207265676973746572207a65726f20616464726573730000000000600082015250565b6000613334601b83612746565b915061333f826132fe565b602082019050919050565b6000602082019050818103600083015261336381613327565b9050919050565b7f5265636569766572206164647265737320697320616c7265616479207265676960008201527f7374657265640000000000000000000000000000000000000000000000000000602082015250565b60006133c6602683612746565b91506133d18261336a565b604082019050919050565b600060208201905081810360008301526133f5816133b9565b9050919050565b7f5369676e65722061646472657373206973206e6f74207468652073616d65206160008201527f7320746865207265636569766572206164647265737300000000000000000000602082015250565b6000613458603683612746565b9150613463826133fc565b604082019050919050565b600060208201905081810360008301526134878161344b565b9050919050565b600060208201905081810360008301526134a9818486612bf5565b90509392505050565b7f4469737472696275746f722063616e6e6f74206469737472696275746520746f60008201527f20697473656c6600000000000000000000000000000000000000000000000000602082015250565b600061350e602783612746565b9150613519826134b2565b604082019050919050565b6000602082019050818103600083015261353d81613501565b9050919050565b7f43616e2774206469737472696275746520746f207a65726f2061646472657373600082015250565b600061357a602083612746565b915061358582613544565b602082019050919050565b600060208201905081810360008301526135a98161356d565b9050919050565b7f43616e2774206469737472696275746520746f20726567697374726172000000600082015250565b60006135e6601d83612746565b91506135f1826135b0565b602082019050919050565b60006020820190508181036000830152613615816135d9565b9050919050565b7f416d6f756e742073686f756c642062652067726561746572207468616e203000600082015250565b6000613652601f83612746565b915061365d8261361c565b602082019050919050565b6000602082019050818103600083015261368181613645565b9050919050565b7f416d6f756e74206578636565647320746f74616c206c696d6974000000000000600082015250565b60006136be601a83612746565b91506136c982613688565b602082019050919050565b600060208201905081810360008301526136ed816136b1565b9050919050565b7f416d6f756e742065786365656473206469737472696275746f72206c696d6974600082015250565b600061372a602083612746565b9150613735826136f4565b602082019050919050565b600060208201905081810360008301526137598161371d565b9050919050565b600061376b82612193565b915061377683612193565b925082820390508181111561378e5761378d612ce6565b5b92915050565b7f19457468657265756d205369676e6564204d6573736167653a0a000000000000815250565b600081519050919050565b600081905092915050565b60006137db826137ba565b6137e581856137c5565b93506137f5818560208601612757565b80840191505092915050565b600061380c82613794565b601a8201915061381c82856137d0565b915061382882846137d0565b91508190509392505050565b7f4e487b7100000000000000000000000000000000000000000000000000000000600052601260045260246000fd5b7f4e487b7100000000000000000000000000000000000000000000000000000000600052602160045260246000fd5b6000819050919050565b6138a581613892565b82525050565b60006020820190506138c0600083018461389c565b92915050565b60006080820190506138db600083018761389c565b6138e860208301866125e6565b6138f5604083018561389c565b613902606083018461389c565b9594505050505056fea26469706673582212209ea7d154c2f306fcbdf88c649c3e6d46f173130c014d94f2c3958f0ea5b1243a64736f6c63430008180033",
  "linkReferences": {},
  "deployedLinkReferences": {}
}